:100000000C9433000C94AB020C94FF020C94FF028E
:100010000C94FF020C94FF020C94FF020C94FF025C
:100020000C94FF020C94FF020C94FF020C94FF024C
:100030000C94FF020C94FF020C94FF020C94FF023C
:100040000C94FF020C94FF020C94FF020C94FF022C
:100050000C94FF0200600063800063006400060CE3
:1000600000640065800011241FBECFE5D8E0DEBF2C
:10007000CDBFE4E5F0E040E017C0B591A591359122
:100080002591059107FD0CC095918591EF01F92F00
:10009000E82F05900D92A217B307D9F7FE0104C00F
:1000A0001D92A217B307E1F7E536F40731F70E9476
:0A00B000F7020C94C902F894FFCF88
:1000BA00823409F18434D1F1813409F051C04111FB
:1000CA000CC02AB381E090E002C0880F991F6A959C
:1000DA00E2F7809582238ABB43C0413009F040C0D1
:1000EA002AB381E090E002C0880F991F6A95E2F76F
:1000FA00822B8ABB35C041110CC027B381E090E046
:10010A0002C0880F991F6A95E2F78095822387BB00
:10011A0027C0413029F527B381E090E002C0880F5B
:10012A00991F6A95E2F7822B87BB1AC041110CC04E
:10013A0021B381E090E002C0880F991F6A95E2F727
:10014A008095822381BB0CC0413051F421B381E0F8
:10015A0090E002C0880F991F6A95E2F7822B81BB53
:04016A0080E0089594
:10016E000F931F93CF93DF930F92CDB7DEB78C0112
:10017E0083B7856083BF35C080916400811118C03C
:10018E001FC0AE014F5F5F4F62E084E40E946501C5
:10019E00898181110DC0109261001092600088B7A4
:1001AE00816088BF8CE082BF13BE0E94110103C024
:1001BE0008B600FEE6CF8981882301F10E94FC0279
:1001CE0008B600FEFDCF88B7816088BF8CE082BF85
:1001DE0080916000909161000196909361008093F0
:1001EE0060002091600030916100C801880F991F56
:1001FE00880F991F2817390708F4BECF1092610097
:10020E001092600013BE80E00F90DF91CF911F918E
:04021E000F9108959F
:100222000F931092640081E08093620080916300DA
:10023200813079F110F08430E0F562E082E40E94CE
:10024200DE0260E081E40E94DE0205E021E042E499
:1002520061E081E40E94310261E082E40E94DE02F8
:1002620061E081E40E94DE0262E081E40E94D90240
:1002720060E082E40E94D90285E090E00E94B7002B
:1002820060E082E40E94DE0262E081E40E94DE021B
:1002920010C062E082E40E94DE0260E082E40E941A
:1002A200D90285E090E00E94B70060E082E40E94FB
:1002B200DE0262E082E40E94D90283E0809363005E
:0802C200109262000F910895F3
:1002CA008234D9F0843479F1813409F041C079B3A8
:1002DA0081E090E09C01062E02C0220F331F0A948F
:1002EA00E2F7872F90E08223932302C095958795A2
:1002FA006A95E2F7FA018083089576B381E090E087
:10030A009C01062E02C0220F331F0A94E2F7872FA0
:10031A0090E08223932302C0959587956A95E2F728
:10032A00FA018083089570B381E090E09C01062E63
:10033A0002C0220F331F0A94E2F7872F90E082232C
:10034A00932302C0959587956A95E2F7FA0180830F
:02035A00089504
:10035C0080916300813031F090F08230E9F083308D
:10036C0059F1089583E08093630045E061E081E4F6
:10037C000E94910261E081E40E94DE02089582E015
:10038C008093630045E061E081E40E94910261E0AA
:10039C0081E40E94DE02089581E08093630062E0B4
:1003AC0081E40E94D90285E090E00E94B70062E0EF
:1003BC0081E40E94DE0208951092630062E082E400
:1003CC000E94D90260E081E40E94D90285E090E0AD
:0E03DC000E94B70060E081E40E94DE020895F6
:1003EA00813419F08234E1F035C041110CC02BB3CD
:1003FA0081E090E002C0880F991F6A95E2F7809524
:10040A0082238BBB27C0413029F52BB381E090E0D2
:10041A0002C0880F991F6A95E2F7822B8BBB1AC01C
:10042A0041110CC028B381E090E002C0880F991FE7
:10043A006A95E2F78095822388BB0CC0413051F45B
:10044A0028B381E090E002C0880F991F6A95E2F70D
:08045A00822B88BB80E00895AD
:10046200EF92FF920F931F93CF93DF93E82EF62E16
:10047200142FD22FC0E00DC06F2D8E2D0E94750259
:100482006D2F812F0E94750281E090E00E94B700DB
:10049200CF5FC01788F380E0DF91CF911F910F915A
:0604A200FF90EF900895A9
:1004A80060E081E40E94D40261E081E40E94D40209
:1004B80062E081E40E94D40260E082E40E94D402F7
:1004C80061E082E40E94D40262E082E40E94D402E5
:1004D80062E084E40E94BE020E94F2020E94AE0121
:0204E800FDCF46
:1004EA00813419F0823461F015C02BB381E090E0B9
:1004FA0002C0880F991F6A95E2F782278BBB0AC050
:10050A0028B381E090E002C0880F991F6A95E2F74C
:08051A00822788BB80E00895F0
:100522000F931F93CF93DF93082F162FD42FC0E082
:1005320009C0612F802F0E94750281E090E00E9425
:10054200B700CF5FCD17A8F380E0DF91CF911F9165
:040552000F91089568
:100556001F920F920FB60F9211248F938091620013
:10056600811103C081E0809364008F910F900FBECC
:060576000F901F90189584
:10057C0040E00E945D000E94E3020E94E8020E949B
:06058C00ED0280E008957D
:10059200EC010E9404030E940303CE010E940503A2
:0605A200CE010E940103DE
:0A05A80041E00E945D0080E008952C
:0A05B20041E00E94F50180E0089589
:0A05BC0040E00E94F50180E0089580
:0A05C6008FB780688FBF80E00895B2
:0A05D00085B7836085BF80E00895C1
:0A05DA008BB780648BBF80E00895AA
:0A05E40013BE8CE082BF80E0089592
:0A05EE000E94540280E090E008959E
:0605F8001092640008955A
:0405FE000C94000059
:040602000E945B00F7
:02060600089555
:02060800089553
:02060A00089551
:01060C0003EA
:00000001FF
