:100000000C9430000C94BD020C9423030C94230335
:100010000C9423030C9423030C9423030C942303C8
:100020000C9423030C9423030C9423030C942303B8
:100030000C9423030C9423030C9423030C942303A8
:100040000C9423030C9423030C9423030C94230398
:100050000C94230300600065800065006600065470
:1000600011241FBECFE5D8E0DEBFCDBFE4E5F0E050
:1000700040E017C0B591A59135912591059107FDF7
:100080000CC095918591EF01F92FE82F05900D9205
:10009000A217B307D9F7FE0104C01D92A217B30738
:1000A000E1F7E036F40731F70E940D030C94D0021B
:0400B000F894FFCFF2
:1000B400823409F18434D1F1813409F051C0411101
:1000C4000CC02AB381E090E002C0880F991F6A95A2
:1000D400E2F7809582238ABB43C0413009F040C0D7
:1000E4002AB381E090E002C0880F991F6A95E2F775
:1000F400822B8ABB35C041110CC027B381E090E04C
:1001040002C0880F991F6A95E2F78095822387BB06
:1001140027C0413029F527B381E090E002C0880F61
:10012400991F6A95E2F7822B87BB1AC041110CC054
:1001340021B381E090E002C0880F991F6A95E2F72D
:100144008095822381BB0CC0413051F421B381E0FE
:1001540090E002C0880F991F6A95E2F7822B81BB59
:0401640080E008959A
:100168000F931092640081E0809363008091650092
:10017800813079F110F08430E0F562E082E40E9489
:10018800F40260E081E40E94F40205E021E042E428
:1001980061E081E40E94450261E082E40E94F40289
:1001A80061E081E40E94F40262E081E40E94EF02CF
:1001B80060E082E40E94EF0285E090E00E941B026A
:1001C80060E082E40E94F40262E081E40E94F402AA
:1001D80010C062E082E40E94F40260E082E40E94BF
:1001E800EF0285E090E00E941B0260E082E40E943A
:1001F800F40262E082E40E94EF0283E080936500EB
:08020800109263000F910895AC
:100210001F93CF93DF930F92CDB7DEB7182F0E94B5
:1002200016032AC080916400811114C01BC0AE0166
:100230004F5F5F4F62E084E40E9451018981811128
:1002400009C0109262000E94E3020E9420030E94F3
:10025000B40003C008B600FEEACF89818823C1F04C
:100260000E941A0308B600FEFDCF0E94E3028091AF
:1002700062008F5F809362002091620030E0812FE6
:1002800090E0880F991F880F991F2817390754F29B
:10029000109262000E9420030F90DF91CF911F9176
:0202A0000895BF
:1002A2008234D9F0843479F1813409F041C079B3D0
:1002B20081E090E09C01062E02C0220F331F0A94B7
:1002C200E2F7872F90E08223932302C095958795CA
:1002D2006A95E2F7FA018083089576B381E090E0AF
:1002E2009C01062E02C0220F331F0A94E2F7872FC9
:1002F20090E08223932302C0959587956A95E2F751
:10030200FA018083089570B381E090E09C01062E8B
:1003120002C0220F331F0A94E2F7872F90E0822354
:10032200932302C0959587956A95E2F7FA01808337
:0203320008952C
:1003340080916500813031F090F08230E9F08330B3
:1003440051F1089583E08093650045E061E081E424
:100354000E94A50261E081E40E94F402089582E013
:100364008093650045E061E081E40E94A50261E0BC
:1003740081E40E94F402089581E08093650062E0C4
:1003840081E40E94EF0285E00E94080162E081E4BA
:100394000E94F40208951092650062E082E40E94D3
:1003A400EF0260E081E40E94EF0285E00E94080110
:0A03B40060E081E40E94F402089565
:1003BE00813419F08234E1F035C041110CC02BB3F9
:1003CE0081E090E002C0880F991F6A95E2F7809550
:1003DE0082238BBB27C0413029F52BB381E090E0FF
:1003EE0002C0880F991F6A95E2F7822B8BBB1AC049
:1003FE0041110CC028B381E090E002C0880F991F14
:10040E006A95E2F78095822388BB0CC0413051F487
:10041E0028B381E090E002C0880F991F6A95E2F739
:08042E00822B88BB80E00895D9
:10043600CF93DF93EC010E9416030EC008B600FEB0
:10044600FDCF0E94E30280916000909161000196C9
:10045600909361008093600020916000309161006C
:10046600CE01880F991F880F991F2817390730F377
:100476000E942003109261001092600080E0DF91DC
:04048600CF91089575
:10048A00EF92FF920F931F93CF93DF93E82EF62EEE
:10049A00142FD22FC0E00DC06F2D8E2D0E9489021D
:1004AA006D2F812F0E94890281E090E00E941B0239
:1004BA00CF5FC01788F380E0DF91CF911F910F9132
:0604CA00FF90EF90089581
:1004D00060E081E40E94EA0261E081E40E94EA02B5
:1004E00062E081E40E94EA0260E082E40E94EA02A3
:1004F00061E082E40E94EA0262E082E40E94EA0291
:100500000E94DB0262E084E40E9412030E9408035E
:0205100008954C
:10051200813419F0823461F015C02BB381E090E090
:1005220002C0880F991F6A95E2F782278BBB0AC027
:1005320028B381E090E002C0880F991F6A95E2F724
:08054200822788BB80E00895C8
:10054A000F931F93CF93DF93082F162FD42FC0E05A
:10055A0008C0612F802F0E94890281E00E94080151
:10056A00CF5FCD17B0F3DF91CF911F910F9108950F
:10057A001F920F920FB60F9211248F9380916300EE
:10058A00811103C081E0809364008F910F900FBEA8
:06059A000F901F90189560
:1005A000EC010E9428030E942703CE010E94290328
:0605B000CE010E942503AC
:1005B6000E94F9020E94FE020E94030380E0089551
:0E05C60088B7816088BF8CE082BF80E0089516
:0A05D40041E00E945A0080E0089503
:0A05DE0041E00E94DF0180E0089573
:0A05E80040E00E94DF0180E008956A
:0A05F2008FB780688FBF80E0089586
:0A05FC0085B7836085BF80E0089595
:0A0606008BB780648BBF80E008957D
:0A06100013BE8CE082BF80E0089565
:0A061A000E9468020E941D03FDCF3C
:0806240040E00E945A00089515
:08062C0083B7856083BF0895C8
:060634001092640008951D
:06063A000E949A010895E0
:0606400013BE80E00895E6
:040646000C94000010
:04064A000E945800B2
:02064E0008950D
:0206500008950B
:02065200089509
:0106540003A2
:00000001FF
